:10000600000000000000000000FE00FF00020008E3
:100016000022001000DA00880006004700100030B9
:100026000010000E00FF00410010002000F0003F0D
:1000360000110048001600460090004100100078AC
:1000460000000000000000000008002000880011E9
:10005600004800090028000500180041000F008133
:1000660000E8007F00080001000800010008000504
:100076000008000900080011000800200000000028
:1000860000000000004000040030000400110004DD
:100096000096000400900004009000440091008443
:1000A6000096007E0090000600900005009800046F
:1000B6000014000400130004005000040030000483
:1000C600000000000000000000FE00FF0022000407
:1000D600005A00080086000700100080000C00414E
:1000E600002400310024000F002500010026000135
:1000F6000024003F0024004100140041000C007160
:1001C900D3EF9400EE9400400F7D267C05DCFEDD24
:0801D900FAEF1F70EB1E80E835
:0101E10022FB
:03000300020106F1
:10010600C0E0C0F0C083C082C0D075D000C000C0BF
:0B01160002C003C004C005C006C00703
:10012100750800750900E50875F040A42406F582FC
:10013100E43400F58375F002E5091201FFE493F55B
:100141000A740193F50BE50875F040A42406F582C5
:10015100E43400F583050975F002E5091201FFE4B5
:1001610093FE740193FBAA06E50BF4F5A0EB540F83
:10017100F4F5C0EAC4F854F0C8EBC4540F48540F66
:10018100F4F5C87F017E001201C975A0FF75C00F8B
:1001910075C80F7F047E001201C90509E509D394D2
:0F01A1001F40830508E508D3940350030201248F
:1001B000D007D006D005D004D003D002D000D0D0D4
:0901C000D082D083D0F0D0E032EF
:1001E200D288D2A8D2AF75A0FF75C00F75C80F8094
:0101F200F517
:030000000201F307
:0C01F300787FE4F6D8FD75810B0201E274
:0C01FF00A42582F582E5F03583F583220B
:00000001FF
